:020000040800F2
:100000000080012099ED0008E9ED0008E9ED000805
:10001000E9ED0008E9ED0008E9ED00080000000046
:10002000000000000000000000000000E9ED0008F2
:10003000E9ED000800000000E9ED0008AFE4000869
:10004000E9ED0008E9ED0008E9ED0008E9ED000838
:10005000E9ED0008E9ED0008F5E60008FFE6000814
:1000600009E7000813E700081DE70008E9ED0008AC
:10007000E9ED0008E9ED0008E9ED0008E9ED000808
:10008000E9ED0008E9ED0008E9ED0008E9ED0008F8
:10009000E9ED0008E9ED0008E9ED000827E70008B0
:1000A000CDF2000825F20008E1F20008E9ED0008B1
:1000B00041F2000855F2000869F20008C5F700088F
:1000C000D5F70008E5F70008F5F70008E9ED0008A6
:1000D000E9ED0008C1FE0008D9FE0008F1FE0008A5
:1000E0003DE700084DE90008E9ED0008E9ED0008EA
:1000F000B9F20008E9ED0008E9ED0008E9ED0008B3
:10010000E9ED0008E9ED00087DF20008E9ED0008DE
:1001100009FF000821FF000891F20008A5F200087D
:10012000E9ED0008E9ED0008E9ED0008E9ED000857
:10013000E9ED0008E9ED0008E9ED0008E9ED000847
:10014000E9ED0008E9ED0008E9ED0008E9ED000837
:10015000E9ED0008E9ED000839FF0008E9ED0008C5
:1001600005F8000815F80008E9ED0008E9ED0008B9
:10017000E9ED0008E9ED0008E9ED000800000000E5
:08018000E9ED0008E9ED0008BB
:1001880010B5054C237833B9044B13B10448AFF3C9
:1001980000800123237010BD300100200000000002
:1001A800183201080C4B43B10C480D4910B5AFF398
:1001B80000800C48036823B910BD0A48036833B9A6
:1001C8007047094B002BF7D0BDE810401847064B85
:1001D800002BF5D0184700BF0000000018320108B6
:1001E800340100203001002000000000034613F80D
:1001F800012B002AFBD1181A0138704700000000B3
:10020800000000000000000001F0FF01102A2BDBB5
:1002180010F0070F08D010F8013B013A8B422DD09F
:1002280010F0070F42B3F6D1F0B441EA012141EAD8
:10023800014122F007047FF000070023F0E802568E
:10024800083C85EA010586EA010685FA47F5A3FA1E
:1002580087F586FA47F6A5FA87F68EB9EED1F0BC8F
:1002680001F0FF0102F0070232B110F8013B013A38
:1002780083EA010313B1F8D10020704701387047B1
:10028800002D06BF35460338073815F0010F07D192
:10029800013015F4807F02BF013015F4C03F0130F2
:1002A800F0BC0138704700BF81F0004102E000BF98
:1002B80083F0004330B54FEA41044FEA430594EA1E
:1002C800050F08BF90EA020F1FBF54EA000C55EA59
:1002D800020C7FEA645C7FEA655C00F0E2804FEA2A
:1002E8005454D4EB5555B8BF6D420CDD2C4480EA0C
:1002F800020281EA030382EA000083EA010180EA3C
:10030800020281EA0303362D88BF30BD11F0004F89
:100318004FEA01314FF4801C4CEA113102D04042BF
:1003280061EB410113F0004F4FEA03334CEA1333FA
:1003380002D0524263EB430394EA050F00F0A78012
:10034800A4F10104D5F1200E0DDB02FA0EFC22FA0D
:1003580005F2801841F1000103FA0EF2801843FA01
:1003680005F359410EE0A5F120050EF1200E012AF2
:1003780003FA0EFC28BF4CF0020C43FA05F3C01830
:1003880051EBE37101F0004507D54FF0000EDCF1A9
:10039800000C7EEB00006EEB0101B1F5801F1BD352
:1003A800B1F5001F0CD349085FEA30004FEA3C0C56
:1003B80004F101044FEA445212F5800F80F09A804C
:1003C800BCF1004F08BF5FEA500C50F1000041EB50
:1003D800045141EA050130BD5FEA4C0C404141EB54
:1003E800010111F4801FA4F10104E9D191F0000F7B
:1003F80004BF01460020B1FA81F308BF2033A3F1FE
:100408000B03B3F120020CDA0C3208DD02F1140CF4
:10041800C2F10C0201FA0CF021FA02F10CE002F12F
:100428001402D8BFC2F1200C01FA02F120FA0CFC28
:10043800DCBF41EA0C019040E41AA2BF01EB045171
:10044800294330BD6FEA04041F3C1CDA0C340EDC6F
:1004580004F11404C4F1200220FA04F001FA02F3B2
:1004680040EA030021FA04F345EA030130BDC4F170
:100478000C04C4F1200220FA02F001FA04F340EA65
:100488000300294630BD21FA04F0294630BD94F016
:10049800000F83F4801306BF81F480110134013DFD
:1004A8004EE77FEA645C18BF7FEA655C29D094EA6E
:1004B800050F08BF90EA020F05D054EA000C04BFEC
:1004C8001946104630BD91EA030F1EBF00210020D7
:1004D80030BD5FEA545C05D14000494128BF41F076
:1004E800004130BD14F580043CBF01F5801130BDDA
:1004F80001F0004545F0FE4141F470014FF0000065
:1005080030BD7FEA645C1ABF194610467FEA655C15
:100518001CBF0B46024650EA013406BF52EA0335B7
:1005280091EA030F41F4002130BD00BF90F0000FA5
:1005380004BF0021704730B54FF4806404F13204E1
:100548004FF000054FF0000150E700BF90F0000F9A
:1005580004BF0021704730B54FF4806404F13204C1
:1005680010F0004548BF40424FF000013EE700BF91
:1005780042004FEAE2014FEA31014FEA02701FBF21
:1005880012F07F4393F07F4F81F06051704792F0F3
:10059800000F14BF93F07F4F704730B54FF460746D
:1005A80001F0004521F0004120E700BF50EA0102B8
:1005B80008BF704730B54FF000050AE050EA010265
:1005C80008BF704730B511F0004502D5404261EBD5
:1005D80041014FF4806404F132045FEA915C3FF416
:1005E800DCAE4FF003025FEADC0C18BF03325FEAAF
:1005F800DC0C18BF033202EBDC02C2F1200300FA64
:1006080003FC20FA02F001FA03FE40EA0E0021FA88
:1006180002F11444C1E600BF70B54FF0FF0C4CF472
:10062800E06C1CEA11541DBF1CEA135594EA0C0F28
:1006380095EA0C0F00F0DEF82C4481EA030621EA63
:100648004C5123EA4C5350EA013518BF52EA03359E
:1006580041F4801143F4801338D0A0FB02CE4FF050
:100668000005E1FB02E506F00042E0FB03E54FF080
:100678000006E1FB03569CF0000F18BF4EF0010E78
:10068800A4F1FF04B6F5007F64F5407404D25FEA74
:100698004E0E6D4146EB060642EAC62141EA555127
:1006A8004FEAC52040EA5E504FEACE2EB4F1FD0C69
:1006B80088BFBCF5E06F1ED8BEF1004F08BF5FEAE7
:1006C800500E50F1000041EB045170BD06F0004699
:1006D80046EA010140EA020081EA0301B4EB5C0446
:1006E800C2BFD4EB0C0541EA045170BD41F480113E
:1006F8004FF0000E013C00F3AB8014F1360FDEBF63
:10070800002001F0004170BDC4F10004203C35DA3E
:100718000C341BDC04F11404C4F1200500FA05F3C1
:1007280020FA04F001FA05F240EA020001F0004262
:1007380021F0004110EBD37021FA04F642EB0601D8
:100748005EEA430E08BF20EAD37070BDC4F10C0402
:10075800C4F1200500FA04F320FA05F001FA04F2C6
:1007680040EA020001F0004110EBD37041F10001B2
:100778005EEA430E08BF20EAD37070BDC4F12005BD
:1007880000FA05F24EEA020E20FA04F301FA05F225
:1007980043EA020321FA04F001F0004121FA04F2CD
:1007A80020EA020000EBD3705EEA430E08BF20EA9D
:1007B800D37070BD94F0000F0FD101F000464000D7
:1007C80041EB010111F4801F08BF013CF7D041EA59
:1007D800060195F0000F18BF704703F0004652005D
:1007E80043EB030313F4801F08BF013DF7D043EA2E
:1007F8000603704794EA0C0F0CEA135518BF95EAE4
:100808000C0F0CD050EA410618BF52EA4306D1D16A
:1008180081EA030101F000414FF0000070BD50EA89
:10082800410606BF1046194652EA430619D094EA13
:100838000C0F02D150EA013613D195EA0C0F05D1FD
:1008480052EA03361CBF104619460AD181EA030151
:1008580001F0004141F0FE4141F470014FF0000009
:1008680070BD41F0FE4141F4780170BD70B54FF0A4
:10087800FF0C4CF4E06C1CEA11541DBF1CEA135524
:1008880094EA0C0F95EA0C0F00F0A7F8A4EB050406
:1008980081EA030E52EA03354FEA013100F08880FD
:1008A8004FEA03334FF0805545EA131343EA1263C6
:1008B8004FEA022245EA111545EA10654FEA00267B
:1008C8000EF000419D4208BF964244F1FD0404F534
:1008D800407402D25B084FEA3202B61A65EB030590
:1008E8005B084FEA32024FF480104FF4002CB6EB4D
:1008F800020E75EB030E22BFB61A754640EA0C00CD
:100908005B084FEA3202B6EB020E75EB030E22BF0C
:10091800B61A754640EA5C005B084FEA3202B6EB4D
:10092800020E75EB030E22BFB61A754640EA9C000C
:100938005B084FEA3202B6EB020E75EB030E22BFDC
:10094800B61A754640EADC0055EA060E18D04FEA9A
:10095800051545EA16754FEA06164FEAC30343EA3A
:1009680052734FEAC2025FEA1C1CC0D111F4801F07
:100978000BD141EA00014FF000004FF0004CB6E700
:1009880011F4801F04BF01430020B4F1FD0C88BF9F
:10099800BCF5E06F3FF6AFAEB5EB030C04BFB6EBAA
:1009A800020C5FEA500C50F1000041EB045170BD9D
:1009B8000EF0004E4EEA113114EB5C04C2BFD4EBCA
:1009C8000C0541EA045170BD41F480114FF0000E4E
:1009D800013C90E645EA060E8DE60CEA135594EACA
:1009E8000C0F08BF95EA0C0F3FF43BAF94EA0C0FCD
:1009F8000AD150EA01347FF434AF95EA0C0F7FF442
:100A080025AF104619462CE795EA0C0F06D152EA95
:100A180003353FF4FDAE1046194622E750EA410679
:100A280018BF52EA43067FF4C5AE50EA41047FF48A
:100A38000DAF52EA43057FF4EBAE12E74FF0FF3CEF
:100A480006E000BF4FF0010C02E000BF4FF0010CC0
:100A58004DF804CD4FEA410C7FEA6C5C4FEA430C39
:100A680018BF7FEA6C5C1BD001B050EA410C0CBF88
:100A780052EA430C91EA030F02BF90EA020F0020EA
:100A8800704710F1000F91EA030F58BF994208BF51
:100A980090422CBFD8176FEAE37040F0010070470E
:100AA8004FEA410C7FEA6C5C02D150EA013C07D165
:100AB8004FEA430C7FEA6C5CD6D152EA033CD3D0B0
:100AC8005DF8040B704700BF8446104662468C46AA
:100AD8001946634600E000BF01B5FFF7B7FF0028DD
:100AE80048BF10F1000F01BD4DF808EDFFF7F4FF06
:100AF8000CBF012000205DF808FB00BF4DF808ED91
:100B0800FFF7EAFF34BF012000205DF808FB00BFB3
:100B18004DF808EDFFF7E0FF94BF012000205DF8D5
:100B280008FB00BF4DF808EDFFF7CEFF94BF01208A
:100B380000205DF808FB00BF4DF808EDFFF7C4FF83
:100B480034BF012000205DF808FB00BF4FEA410CCC
:100B58007FEA6C5C02D150EA013C0AD14FEA430CAF
:100B68007FEA6C5C02D152EA033C02D14FF00000EC
:100B780070474FF0010070474FEA410212F500122A
:100B880015D211D56FF47873B3EB625212D94FEACC
:100B9800C12343F0004343EA505311F0004F23FAB6
:100BA80002F018BF404270474FF00000704750EA0B
:100BB800013005D111F0004008BF6FF000407047C8
:100BC8004FF00000704700BF4FEA4102B2F1E04326
:100BD80024BFB3F5001CDCF1FE5C0DD901F0004C1C
:100BE8004FEAC0024CEA5070B2F1004F40EB83006C
:100BF80008BF20F00100704711F0804F21D113F198
:100C08003872BCBF01F00040704741F480114FEAD0
:100C18005252C2F11802C2F1200C10FA0CF320FA59
:100C280002F018BF40F001004FEAC1234FEAD32376
:100C380003FA0CFC40EA0C0023FA02F34FEA4303E0
:100C4800CCE77FEA625307D150EA01331EBF4FF069
:100C5800FE4040F44000704701F0004040F0FE4084
:100C680040F40000704700BF53B94AB9002908BFD3
:100C780000281CBF4FF0FF314FF0FF3000F07AB969
:100C8800ADF1080C6DE904CE00F006F8DDF804E0DB
:100C9800DDE9022304B070472DE9F0478C460D4684
:100CA8000446089E002B51D18A4217466DD9B2FAE4
:100CB80082FEBEF1000F0BD0CEF1200C01FA0EF52A
:100CC80020FA0CFC02FA0EF74CEA050C00FA0EF4B6
:100CD8004FEA174A250CBCFBFAF81FFA87F90AFBFA
:100CE80018CC45EA0C4508FB09F3AB420AD9ED19C3
:100CF80008F1FF3280F02381AB4240F22081A8F155
:100D080002083D44ED1AA4B2B5FBFAF00AFB1055EF
:100D180044EA054400FB09F9A14509D9E41900F1A1
:100D2800FF3380F00A81A14540F2078102383C4434
:100D3800A4EB090440EA08400021002E61D024FAFF
:100D48000EF4002334607360BDE8F0878B4207D946
:100D5800002E54D0002186E821000846BDE8F0871F
:100D6800B3FA83F1002940F08E80AB4202D382426D
:100D780000F2FA80841A65EB03050120AC46002EC8
:100D88003FD086E81010BDE8F08712B90127B7FBFD
:100D9800F2F7B7FA87FEBEF1000F34D1EB1B3A0C1D
:100DA8001FFA87FC0121B3FBF2F8250C02FB18336C
:100DB80045EA03450CFB08F3AB4207D9ED1908F1E6
:100DC800FF3002D2AB4200F2D1808046ED1AA3B2C6
:100DD800B5FBF2F002FB105543EA05440CFB00FC9E
:100DE800A44507D9E41900F1FF3302D2A44500F263
:100DF800B8801846A4EB0C0440EA08409DE7314649
:100E08003046BDE8F087CEF1200405FA0EF307FA64
:100E18000EF720FA04F83A0C25FA04F448EA030815
:100E2800B4FBF2F14FEA184502FB11441FFA87FCA4
:100E380045EA044501FB0CF3AB4200FA0EF409D96C
:100E4800ED1901F1FF3080F08A80AB4240F28780D3
:100E580002393D44EB1A1FFA88F5B3FBF2F002FBA6
:100E6800103345EA034500FB0CF3AB4207D9ED19F3
:100E780000F1FF386FD2AB426DD902383D44EB1A0E
:100E880040EA01418FE7C1F1200722FA07F88B40B9
:100E980005FA01F448EA030320FA07FE4FEA134C67
:100EA800FD404EEA040EB5FBFCF94FEA1E440CFB6C
:100EB80019551FFA83F844EA054509FB08F4AC42C2
:100EC80002FA01F200FA01FA08D9ED1809F1FF3027
:100ED80043D2AC4241D9A9F102091D442D1B1FFA86
:100EE8008EFEB5FBFCF00CFB10554EEA054400FBEA
:100EF80008F8A04507D9E41800F1FF3529D2A04524
:100F080027D902381C4440EA0940A4EB0804A0FB96
:100F180002894C45C6464D4615D312D056B1BAEB98
:100F28000E0364EB050404FA07F7CB401F43CC40DB
:100F3800376074600021BDE8F0871846F8E69046EF
:100F4800E0E6C245EAD2B8EB020E69EB03050138C8
:100F5800E4E72846D7E7404691E78146BEE70146E1
:100F680078E702383C4445E7084608E7A8F1020854
:100F78003D442BE7704700BF03790B7043794B70F2
:100F880083798B70C379CB70037A0B71437A4B7179
:100F9800837A8B71C37ACB71082070470B784360D2
:100FA8004A7843EA022343608A7843EA024343606B
:100FB800CA7843EA026343600B7983604A7943EA5B
:100FC800022383608A7943EA02438360CA7943EA49
:100FD800026383600820704700487047583B010847
:100FE80000487047343B010870B40B7883804A7816
:100FF80043EA0223838000242346032B06D8CA1819
:101008009278DD00AA4014430133F6E70623A21DB7
:10101800934204D25A1ECD5C8D540133F7E7053450
:1010280000230B554C1D84601E46032B06D88C18D4
:10103800E45CDD00AC4026430133F6E7141D23468B
:10104800A219934204D25A1ECD5C8D540133F7E79E
:10105800551E00234B55013C0C44C4601E46032B0F
:1010680006D88C18E45CDD00AC4026430133F6E773
:10107800043213469419A34204D25C1ECD5C0D556C
:101088000133F7E7631E0025CD54013A0A44026193
:101098000B5D621C8A5C43EA0223A21C8A5C43EA59
:1010A8000243E21C8A5C43EA02634361201D70BC70
:1010B80070470000004870473439010800487047FD
:1010C8001039010870B406460B78037100221346E4
:1010D800032B07D8581C0C5CDB0004FA03F31A43F3
:1010E8000346F5E70523501D834204D25C1ECD5C00
:1010F8000D550133F7E7043200238B540431B160F6
:1011080070BC704700487047FC38010800487047B9
:10111800D838010870B4064600221346032B05D8B8
:10112800CC5CDD00AC4022430133F7E70423101DFB
:10113800834204D25C1ECD5C0D550133F7E70332C0
:1011480000238B540331716070BC704700487047AE
:101158005039010800487047903801080048704726
:101168005039010800487047B43801080AB90846E0
:10117800704730B4C568C268942A0DDC83684C1C7B
:10118800097899548168C268895C19B10132C260D2
:101198002146F0E70132C260C268942A01DD0222CA
:1011A800027481682944084630BC704703790B7083
:1011B800012070470B780371012070470048704781
:1011C800243B010800487047003B010843680B7046
:1011D800C3F307224A70C3F307428A701B0ECB7011
:1011E800042070470B784A7843EA02238A7843EA56
:1011F8000243CA7843EA0263436004207047000050
:10120800004870478C3B010800487047683B01085C
:1012180030B400221346032B05D8CC5CDD00AC406B
:1012280022430133F7E70423141DA34204D25C1EB2
:10123800CD5C0D550133F7E7D31C0025CD54CB1CED
:1012480043600B5D8360541D0C5D43EA0423836097
:10125800941D0C5D43EA04438360D41D0C5D43EA8E
:101268000463836002F10803CB5CC36002F10904E4
:101278000C5D43EA0423C36002F10A040C5D43EAEF
:101288000443C36002F10B04095D43EA0163C360D0
:1012980002F10C0030BC704700487047E03A010882
:1012A80000487047BC3A0108F8B506460F4603796E
:1012B8000B7043794B7083798B70C379CB700024A2
:1012C800042573689C4209D2B0692301C258126888
:1012D80079191844904705440134F2E7337F7B5568
:1012E8006B1C727FFA54AB1CB27FFA54EB1CF27F72
:1012F800FA54281DF8BD000000487047603A0108FC
:10130800004870473C3A010800487047A03A010875
:10131800004870477C3A010870B406460B78436071
:101328004A7843EA022343608A7843EA02434360E7
:10133800CA7843EA026343600B7983604A7943EAD7
:10134800022383608A7943EA02438360CA7943EAC5
:10135800026383600B7AC3604A7A43EA0223C3605C
:101368008A7A43EA0243C360CA7A43EA0263C360E3
:1013780000221346032B06D8C818047BD8008440E3
:1013880022430133F6E7102302F11000834204D20E
:101398005C1ECD5C0D550133F6E70F3200238B54EC
:1013A8000F31316170BC704700487047C03B01087D
:1013B800004870479C3B010800487047A436010864
:1013C8000048704780360108004870473C380108DB
:1013D8000048704718380108004870473C36010833
:1013E80000487047183601080048704770360108F1
:1013F800004870474C360108004870470438010817
:1014080000487047E037010800487047CC370108AA
:1014180000487047183801080048704778380108B4
:10142800004870475438010800487047E4360108FE
:1014380000487047C0360108F8B506460F460379DC
:101448000B7043794B7083798B70C379CB70002410
:10145800042573689C420BD2F06C04EB04129300D1
:10146800C258126879191844904705440134F0E7C6
:101478002846F8BD00487047903901080048704771
:101488006C39010800487047B837010800487047B0
:10149800943701080048704728370108004870470A
:1014A8000437010800487047703701080048704742
:1014B8004C37010800487047283A0108004870472F
:1014C800043A010890F8A40670470000F0B585B00A
:1014D800632903DD90F8A436002B5AD00F46044642
:1014E80013681B6800F21F211046984786B2FF2335
:1014F80084F81832FE2384F81932C3B284F81A32F9
:101508003546C0F3072084F81B020344DBB2DB43F3
:1015180084F81C3284F81D7247F3072784F81E727A
:1015280005230022E91D8B4205DAE11891F818120B
:101538000A440133F6E7F11D06F108039BB2504255
:10154800D2B2C0B258BF4242D24314FA81F181F8F4
:1015580018221E46B3F5806F0BDC04F506770025CC
:10156800AE4217DD606803681B68795D98470135EE
:10157800F6E70A4B019303238DF80830084B0393D1
:1015880023681B6801AA0721204698474FF0FF36B9
:1015980000E00026304605B0F0BD00BF6832010803
:1015A800A0390108406C704700487047A03A01080C
:1015B800004870477C3A0108406C70470048704703
:1015C80070360108004870474C360108806B704738
:1015D800004870470438010800487047E0370108A0
:1015E800F8B58468056A2046FEF7C2FF06460F462E
:1015F80021A3D3E90023FFF781FA48B920A3D3E94F
:10160800002330463946FFF797FA10B1144C00E032
:10161800144C154B1C602846FEF7AAFF06460F46D9
:101628000BA3D3E90023FFF769FA48B90AA3D3E962
:10163800002330463946FFF77FFA10B10B4D00E022
:101648000B4D094B5D600FF089F80A4B9861F8BDA6
:10165800C9885460E8591DC0C9885460E8591D40BC
:10166800D06AE13FD06AE1BF9803002043CFEA4047
:1016780043CFEAC05803002083B613F6592DFCBFA8
:1016880083B613F6592DFC3FF8B58468056A2046E1
:10169800FEF76EFF06460F4621A3D3E90023FFF7A6
:1016A8002DFA48B920A3D3E9002330463946FFF77D
:1016B80043FA10B1144C00E0144C154B1C6028463A
:1016C800FEF756FF06460F460BA3D3E90023FFF7A4
:1016D80015FA48B90AA3D3E9002330463946FFF77B
:1016E8002BFA10B10B4D00E00B4D094B5D600FF06C
:1016F80035F80A4BD861F8BDC9885460E8591DC04F
:10170800C9885460E8591D40D06AE13FD06AE1BFFA
:10171800F005002043CFEA4043CFEAC05803002039
:1017280083B613F6592DFCBF83B613F6592DFC3F2B
:10173800F8B5C36A1A68304B1A60056A6868FEF71C
:1017480017FF25A3D3E90023FEF766FFFFF73CFA4E
:1017580004462A4B18602868FEF70AFF20A3D3E93D
:101768000023FEF759FFFFF72FFA05462046FEF73C
:10177800FFFE06460F461CA3D3E90023FFF7BEF978
:1017880048B915A3D3E9002330463946FFF7D4F901
:1017980010B11B4C00E01B4C184B1C602846FEF790
:1017A800E7FE06460F4612A3D3E90023FFF7A6F982
:1017B80048B90BA3D3E9002330463946FFF7BCF9F3
:1017C80010B1114D00E0114D0C4B5D600EF0C6FFDD
:1017D8000F4B1862F8BD00BF83B613F6592DFC3FB6
:1017E800C9885460E8591D4083B613F6592DFCBFCB
:1017F800C9885460E8591DC06405002068050020A8
:10180800D06AE13FD06AE1BF43CFEA4043CFEAC0A4
:1018180058030020F8B506460C4603790B708388F8
:101828001B0A4B708068FEF7E1FC07460023032B78
:1018380006D8991CDA0027FA02F262540133F6E757
:101848003A46B168A01D0FF013F80637F068FEF7A6
:10185800CDFC05460023032B06D8F918DA0025FA33
:1018680002F262540133F6E704372A46F168E019B8
:101878000EF0FEFF3D443069FEF7B8FC0746002332
:10188800032B06D8E918DA0027FA02F2625401336A
:10189800F6E704353A46316960190EF0E9FF3D4430
:1018A800736963556A1CC3F30721A154AA1CC3F3C7
:1018B8000741A154EA1C1B0EA354281DF8BD70B59E
:1018C80006460D4603790B708068FEF78FFC0446C8
:1018D8000023032B06D85A1CDB0024FA03F3AB546D
:1018E8001346F6E72246B168681D0EF0C1FF601D79
:1018F80070BD70B506460D464068FEF777FC044695
:101908000023032B05D8DA0024FA02F2EA54013343
:10191800F7E722467168281D0EF0AAFF201D70BD4A
:101928002DE9F84306460D4603790B7043794B7051
:1019380083798B70C379CB700022042473689A4230
:1019480011D2F36853F822302B55611CC3F30720DA
:101958006854A11CC3F307406854E11C1B0E6B5468
:1019680004340132EAE7337C2B55631C727CEA5459
:10197800A31CB27CEA54E31CF27CEA54043400222F
:1019880033699A4211D2B36953F822302B55611C3E
:10199800C3F307206854A11CC3F307406854E11C33
:1019A8001B0E6B5404340132EAE7337F2B55631C5A
:1019B800727FEA54A31CB27FEA54E31CF27FEA5414
:1019C80004344FF000080AE00434736A3A4653F8C6
:1019D800091028190EF04CFF3C4408F10108F3697E
:1019E800984512D2736A4FEA880953F82800FEF71F
:1019F800FDFB074620460023032BE5D8C118DA0073
:101A080027FA02F26A540133F6E72046BDE8F88364
:101A180070B505460C4603790B7043794B70837992
:101A28008B70C379CB70037A0B71437A4B71837ACD
:101A38008B71C37ACB71037B0B72437B4B72837BB5
:101A48008B72C37BCB720069FEF7D0FB064600237E
:101A5800032B07D803F10C01DA0026FA02F26254CC
:101A68000133F5E73246296904F110000EF000FF52
:101A780006F1100070BD70B506460D464068FEF7C9
:101A8800B5FB04460023032B05D8DA0024FA02F23A
:101A9800EA540133F7E722467168281D0EF0E8FE84
:101AA800231D327AEA54631D727AEA54A31DB27A6E
:101AB800EA54E31DF27AEA5404F10803327BEA544B
:101AC80004F10903727BEA5404F10A03B27BEA5475
:101AD80004F10B03F27BEA5404F10C0070BD000022
:101AE80010B50446034B0360012180680EF0D8FC52
:101AF800204610BDB032010810B50446054B0360FE
:101B0800012180680EF0CCFC142120460EF0C8FCA0
:101B1800204610BDB0320108F8B506460D460C78CF
:101B28004B7844EA03248B7844EA0344CB7844EAAC
:101B3800036443689C4219D87460002204247368C3
:101B48009A4219D22B5D611C695C43EA0123A11CEE
:101B5800695C43EA0143E11C695C43EA0163B360E1
:101B68000434F16841F822300132E8E7A100C06886
:101B78000FF046FAF060DFE72F5D631CEB5C47EA85
:101B88000327A31CEB5C47EA0347E31CEB5C47EA2B
:101B98000367043433699F4218D8376100223369D8
:101BA8009A4219D22B5D611C695C43EA0123A11C8E
:101BB800695C43EA0143E11C695C43EA01637361C0
:101BC8000434B16941F822300132E8E7B900B0695C
:101BD8000FF016FAB061E0E72F5D631CEB5C47EA93
:101BE8000327A31CEB5C47EA0347E31CEB5C47EACB
:101BF80003670434F3699F4203D8F7614FF0000E7E
:101C08001BE0B900706A0FF0FBF97062F5E7043465
:101C18002346A018834204D2591EEF5C6F54013347
:101C2800F7E7431E0022EA54013C2B1933620446AD
:101C3800726A42F82E300EF1010EF3699E450BD2FE
:101C4800274600221346032BE1D8E919C95CD800BE
:101C580081400A430133F6E72046F8BD2DE9704F6D
:101C6800C46A2068FEF784FC80468946124DC5E99F
:101C780000896068FEF77CFC82468B460F4EC6E9F9
:101C880000ABA068FEF774FC0D4CC4E9000141EC00
:101C9800120B4BEC11AB49EC108B0A4807F0B8FB60
:101CA80094ED002B96ED001B95ED000B064807F010
:101CB800AFFBBDE8708F00BF1000002008000020B7
:101CC8003003002040060020B806002008B5232075
:101CD8000EF01CFD01280AD00022094B1A70084B8F
:101CE8001B7843B9074A13680133136008BD012202
:101CF800034B1A70F3E7034A1368013B136008BDEE
:101D08002C0400203004002008B521200EF0FEFC31
:101D180001280AD00022094B1A70084B1B7843B9D6
:101D2800074A13680133136008BD0122034B1A7078
:101D3800F3E7034A1368013B136008BD2D04002034
:101D48003404002008B528200EF0E0FC01280AD051
:101D58000022094B1A70084B1B7843B9074A1368CD
:101D6800013B136008BD0122034B1A70F3E7034AD5
:101D780013680133136008BD2E04002038040020C6
:101D8800012800D070474FF6FF739942FAD12DE928
:101D9800F04782B09B4806F046FDDFF8F4A2DFF872
:101DA800F492DFF8F482984F984E994D00240094ED
:101DB8009AED002B99ED001B98ED000B3B4632463F
:101DC8002946944807F038FC00949AED002B99EDC9
:101DD800001B98ED000B07F1080306F1080205F156
:101DE80008018D4807F028FC68228C498C4807F0C8
:101DF8002FFC8C4B8C4A1A608C4A5A604FF4614213
:101E08009A6083F8A4468A4AC3F8B826C3F8BC4641
:101E1800C3F8C446C3F8C846C3F8D046C3F8D44686
:101E2800C3F8DC4623460E2B07D803F5C371002000
:101E38007C4A42F821000133F5E700230E2B08D82D
:101E480003F5CA71774A02EB810200215160013320
:101E5800F4E70023B3F5007F05D2724A1A44002143
:101E680011760133F6E70023B3F5806F06D26D4A89
:101E78001A44002182F818120133F5E76D4B00224D
:101E88001A605A606C4BDFF814E2C3F800E06B4E3E
:101E98001E616B48586100219961D96119625862C5
:101EA8009962D9621963674C5C6301249C63664D2F
:101EB8009D601A73654B664D1D60664D1D61664FCA
:101EC8005F619A61DA611A62644D5D629A621A63AF
:101ED8005A63DA63DFF8C8C1C3F840C05C64DFF84E
:101EE800C4C1C3F808C01A735D4BC3F800E01E6193
:101EF80058619961D961196258629962D962196306
:101F0800DFF8A4E1C3F834E09C63DFF8A0E1C3F88C
:101F180008E01A73534BDFF898E1C3F800E0DFF8E4
:101F280094E1C3F810E0DFF890E1C3F814E09A6197
:101F3800DFF888E1C3F81CE01D625A629A62DA622F
:101F48001A635A63DA63DFF878E1C3F840E05C6447
:101F5800454C9C601A73454C454B23606260454B69
:101F6800DFF860E1C3F800E01A719C605A61424BE7
:101F78001E6058609960D960196158619961D9618A
:101F880019623E483E4C04600271836042613D4BD9
:101F98003D4818605F609A60DA601A615D613B4A8B
:101FA8009A61D96119625962996208222C33002A10
:101FB80004DB002143F8041B013AF8E7314A204BBF
:101FC8001365002353659365D36508236032002B9E
:101FD80004DB002142F8041B013BF8E7294A184BAF
:101FE800C2F884300023C2F88830C2F88C30C2F8B6
:101FF800903008239432002B66DB002142F8041B42
:10200800013BF8E73406002048030020380300208D
:102018002003002040060020B80600206811002098
:102028005001002030070020303401080C15002032
:1020380098320108E8030020A0030020B833010803
:1020480070330108E9150008B4350108700500204F
:10205800BC340108A033010840330108D83901080D
:10206800F805002060100020C83501084005002050
:10207800E032010848050020F00300201404002085
:10208800E03501087004002088330108583301083E
:10209800300300200800002010000020A4340108AC
:1020A80039170008BC35010891160008C035010829
:1020B800D43401082833010810330108F832010824
:1020C800651C0008D4350108534A544B136000239B
:1020D8001371534991605361524A534911605349EE
:1020E80051609360D3601361514B53619361514BBD
:1020F800D361514B1362514B536200239362D362F5
:1021080013634F4951639363D36313645364232365
:102118004832002B04DB002142F8041B013BF8E79E
:10212800404A484BC2F8D830474BC2F8DC304749E0
:10213800C2F8E0100023C2F8E430C2F8E830C2F870
:10214800EC30C2F8F010C2F8F430C2F8F830C2F837
:10215800FC30232302F58072002B04DB002142F8B7
:10216800041B013BF8E73A4B3A4A1A6000221A71FD
:102178002C4999605A613849384808600A71384BC7
:10218800384C1C601A7199605A61374908600A71A5
:10219800364B374818601A7199605A61354BDFF829
:1021A800E4E0C3F800E0214F5F609A60DA601A61EA
:1021B8001F4858619861304EDE61244D1D62002130
:1021C80059629962D9621E4C1C6359639963D96339
:1021D80019642A4BDFF8B0C0C3F800C05A60C3F8CE
:1021E80008E0DF601A615A619A61D86118625E621C
:1021F8009D62D962196359639C63D96319645964F0
:102208009964DA641E49196583F854209B655A66F7
:1022180002B0BDE8F08700BF28050020E8350108B6
:1022280070040020100E00208C340108403301088F
:10223800D83901085C34010844340108D033010856
:102248005833010874340108B833010870330108A1
:10225800EC0F0020EC350108B8050020C832010851
:10226800C0050020F4350108AC100020B41000208F
:102278000436010804100020E8330108F810002093
:1022880014360108003401081834010830B4C56850
:10229800C368942B0DDC82684C1C0978D154826881
:1022A800C368D25C1AB10133C3602146F0E7013339
:1022B800C360C368942B01DD02230374806828443B
:1022C80030BC70472DE9F84305460E460C784B782C
:1022D80044EA03248B7844EA0344CB7844EA036451
:1022E80043689C4204D86C604FF0000C042059E00D
:1022F800210180690EF084FEA861F4E704230C1D17
:102308009C4204D95C1ED75C17550133F7E7CB1CF8
:102318000027D754D31CCEF80430135DCEF808300C
:102328004C1D145D43EA0423CEF808308C1D145D5F
:1023380043EA0443CEF80830CC1D145D43EA046335
:10234800CEF8083001F10803D35CCEF80C3001F167
:102358000904145D43EA0423CEF80C3001F10A04A1
:10236800145D43EA0443CEF80C3001F10B04125D0E
:1023780043EA0263CEF80C300C310844A9694FEAED
:102388000C128B18DEF80090DEF80480DEF8087076
:10239800DEF80C4041F80290C3F804809F60DC60CE
:1023A8000CF1010C6B689C450CD205F1080E321833
:1023B80000210B46032BA1D8D45CDF00BC4021438D
:1023C8000133F7E7335CEB61421CB25C43EA02235A
:1023D800EB61821CB25C43EA0243EB61C21CB25C53
:1023E80043EA0263EB610430BDE8F8832DE9F0416C
:1023F80006460C4600F1040898F804300B7098F86B
:1024080005304B7098F806308B7098F80730CB7011
:1024180000250427D8F80430AB420AD9D8F81800A8
:102428002B01C2581268E119184490470744013536
:10243800F0E798F81C30E3557B1C98F81D20E2540F
:10244800BB1C98F81E20E254FB1C98F81F20E2548D
:10245800381D96F8243023547B1D96F82520E25425
:10246800BB1D96F82620E254073796F82730E35527
:1024780004300022736A9A4211D2F36A53F8223068
:102488002354411CC3F307256554811CC3F3074536
:102498006554C11C1B0E635404300132EAE7BDE8E1
:1024A800F0812DE9F04705460F460C784B7844EA51
:1024B80003248B7844EA0344CB7844EA03644368F2
:1024C8009C4203D86C6000240426AFE104EB04139B
:1024D8009900C06C0EF094FDE864F3E710220EF149
:1024E8001000904206D9501E13F8028003F80080AD
:1024F8000132F4E70EF10F0E002203F80E2003F16B
:102508000F0ECCF810E09046032A0BD803EB020E0E
:102518001EF800E04FEAC20C0EFA0CFE48EA0E085C
:102528000132F1E70430024608EB000E964507D960
:1025380002F1FF3E13F802C003F80EC00132F3E7C0
:102548000EF1FF324FF0000C03F802C001381844B6
:10255800886101F11C0C734401F12000DA785209FA
:102568004A6293F8048042EAC8024A6293F80580F6
:1025780042EAC8224A6293F806804FEAC84808F43B
:10258800F00842EA08024A6293F8069093F8078036
:102598004FEA081808F4FE6858EA191804D0A8F594
:1025A800607842EAC8524A62DA79120602F00048B4
:1025B8004A6A48EA02024A6203F1080898F80320C6
:1025C8005209826098F8049042EAC902826098F839
:1025D800059042EAC922826098F806904FEAC949F4
:1025E80009F4F00942EA0902826098F806A098F80E
:1025F80007904FEA091909F4FE6959EA1A1904D033
:10260800A9F5607942EAC952826098F80720120653
:1026180002F00048826848EA0202826003F110086A
:1026280098F803205209C26098F8049042EAC90257
:10263800C26098F8059042EAC922C26098F80690EC
:102648004FEAC94909F4F00942EA0902C26098F858
:1026580006A098F807904FEA091909F4FE6959EAA3
:102668001A1904D0A9F5607942EAC952C26098F8EB
:102678000720120602F00048C26848EA0202C26057
:102688000CF114001833DA785209CCF8182093F8B2
:10269800048042EAC802CCF8182093F8058042EA80
:1026A800C822CCF8182093F806804FEAC84808F4E6
:1026B800F00842EA0802CCF8182093F8069093F83C
:1026C80007804FEA081808F4FE6858EA191805D078
:1026D800A8F5607842EAC852CCF81820DA791206D0
:1026E80002F00048DCF8182048EA0202CCF818206A
:1026F80003F1080C9CF80320520982609CF80480BE
:1027080042EAC80282609CF8058042EAC8228260D8
:102718009CF806804FEAC84808F4F00842EA080224
:1027280082609CF806909CF807804FEA081808F425
:10273800FE6858EA191804D0A8F5607842EAC85229
:1027480082609CF80720120602F0004C82684CEA6E
:102758000202826003F1100C9CF803205209C26047
:102768009CF8048042EAC802C2609CF8058042EAEC
:10277800C822C2609CF806804FEAC84808F4F008EE
:1027880042EA0802C2609CF806909CF807804FEA6B
:10279800081808F4FE6858EA191804D0A8F56078F3
:1027A80042EAC852C2609CF80720120602F0004CA8
:1027B800C2684CEA0202C2601833DA785209026130
:1027C80093F804C042EACC02026193F805C042EAD9
:1027D800CC22026193F806C04FEACC4C0CF4F00C02
:1027E80042EA0C02026193F8068093F807C04FEAA8
:1027F8000C1C0CF4FE6C5CEA181C04D0ACF5607C74
:1028080042EACC520261DB791B0603F000420369FD
:10281800134303610EF1380E7644EB6C04EB04129B
:102828009000442218440EF023F801346B689C424F
:102838004AD205F10801BB1905F10C0CBA5DCCF8B8
:102848000420587842EA0022CCF80420987842EA1A
:102858000042CCF80420D87842EA0062CCF8042080
:102868001A79CCF80820587942EA0022CCF80820D6
:10287800987942EA0042CCF80820D87942EA006206
:10288800CCF808201A7ACCF80C20587A42EA0022B0
:10289800CCF80C20987A42EA0042CCF80C20D87A7E
:1028A80042EA0062CCF80C204FF0000E7246032A70
:1028B8003FF614AE9818007B4FEAC20800FA08F0F9
:1028C8004EEA000E0132F2E73046BDE8F0872DE906
:1028D800F84F07460C4600F1100600F1140591F870
:1028E80000804B7848EA03288B7848EA0348CB787D
:1028F80048EA03686B68984506D8C5F804804FF025
:10290800000C4FF004085FE04FEA0811A8690EF0C8
:1029180077FBA861F1E70423081D984206D9581EE1
:1029280012F8039002F800900133F5E7CB1C4FF042
:10293800000902F80390D31CCEF80430135CCEF8DB
:102948000830481D105C43EA0023CEF80830881D83
:10295800105C43EA0043CEF80830C81D105C43EA17
:102968000063CEF8083001F10803D35CCEF80C30D0
:1029780001F10900105C43EA0023CEF80C3001F1A4
:102988000A00105C43EA0043CEF80C3001F10B005A
:10299800125C43EA0263CEF80C300C318844A96912
:1029A8004FEA0C128B18DEF800B0DEF804A0DEF84F
:1029B8000890DEF80C0041F802B0C3F804A0C3F890
:1029C8000890D8600CF1010C6B6863450FD905F1CC
:1029D800080E04EB080200210B46032B9BD8D05CA1
:1029E8004FEAC30900FA09F001430133F5E714F887
:1029F8000830EB6108F10102A25C43EA0223EB61B3
:102A080008F10202A25C43EA0243EB6108F1030207
:102A1800A25C43EA0263EB6108F10405635D08F117
:102A28000502A25C43EA022308F10602A25C43EA1B
:102A3800024308F1070814F8088043EA08680435D7
:102A4800736A984519D8C6F824800022736A93429D
:102A58001AD9635D691C615C43EA0123A91C615CA6
:102A680043EA0143E91C615C43EA0163B36204354C
:102A7800F16A41F822300132E8E74FEA8801F06A4A
:102A88000EF0BEFAF062DEE73B6C30469847BDE8D0
:102A9800F88F2DE9F04706460C46051D0F784B7850
:102AA80047EA03278B7847EA0347CB7847EA036767
:102AB8006B689F4205D86F604FF0000C4FF0040818
:102AC80059E03901A8690EF09BFAA861F3E70423DD
:102AD800081D984204D9581ED75C17540133F7E7EC
:102AE800CB1C0027D754D31CCEF80430135CCEF887
:102AF8000830481D105C43EA0023CEF80830881DD2
:102B0800105C43EA0043CEF80830C81D105C43EA65
:102B18000063CEF8083001F10803D35CCEF80C301E
:102B280001F10900105C43EA0023CEF80C3001F1F2
:102B38000A00105C43EA0043CEF80C3001F10B00A8
:102B4800125C43EA0263CEF80C300C318844A96960
:102B58004FEA0C128B18DEF800A0DEF80490DEF8BD
:102B68000870DEF80C0041F802A0C3F804909F60DA
:102B7800D8600CF1010C6B6863450DD905F1080E9E
:102B880004EB080200210B46032BA0D8D05CDF0021
:102B9800B84001430133F7E714F80830EB6108F156
:102BA8000102A25C43EA0223EB6108F10202A25C83
:102BB80043EA0243EB6108F10302A25C43EA0263C1
:102BC800EB6108F10405675D08F10503E35C47EA7A
:102BD800032708F10603E35C47EA034708F10708FF
:102BE80014F8083047EA03670435736A9F4218D817
:102BF80077620022736A9A4219D2635D691C615C2C
:102C080043EA0123A91C615C43EA0143E91C615CB6
:102C180043EA0163B3620435F16A41F822300132B4
:102C2800E8E7B900F06A0EF0EBF9F062E0E7284651
:102C3800BDE8F08770B4051DD5ED017A17EE903A1E
:102C4800C3F3C7520AB102F5607200240C704C70CD
:102C58008C705C01CC70C3F3C7040C71C3F3C72438
:102C68004C71C3F3C34343EA02138B71C2F30612D8
:102C7800CA71F5EEC07AF1EE10FA00F1DE8001F1CA
:102C88000802D5ED027A17EE903AC3F3C7540CB197
:102C980004F5607400260E72567096705E01D67048
:102CA800C3F3C7061671C3F3C7265671C3F3C343EC
:102CB80043EA04139371C4F30614D471F5EEC07A91
:102CC800F1EE10FA00F1BD8001F11002D5ED037AA2
:102CD80017EE903AC3F3C7540CB104F5607400259D
:102CE8000D74557095705D01D570C3F3C7051571E6
:102CF800C3F3C7255571C3F3C34343EA0413937160
:102D0800C4F30614D471F5EEC07AF1EE10FA00F1AE
:102D18009C80143001F11803D0ED017A17EE902A47
:102D2800C2F3C7540CB104F5607400250D765D70CC
:102D38009D705101D970C2F3C7011971C2F3C7213F
:102D48005971C2F3C34242EA04129A71C4F30614D9
:102D5800DC71F5EEC07AF1EE10FA7AD403F10801CD
:102D6800D0ED027A17EE902AC2F3C7540CB104F5DD
:102D7800607400251D724D708D705501CD70C2F3C1
:102D8800C7050D71C2F3C7254D71C2F3C34242EAAC
:102D980004128A71C4F30614CC71F5EEC07AF1EE10
:102DA80010FA5AD403F11001D0ED037A17EE902AE5
:102DB800C2F3C7540CB104F5607400251D744D703E
:102DC8008D705501CD70C2F3C7050D71C2F3C725CB
:102DD8004D71C2F3C34242EA04128A71C4F3061465
:102DE800CC71F5EEC07AF1EE10FA3AD403F118017D
:102DF800D0ED047A17EE902AC2F3C75008B100F557
:102E0800607000241C764C708C705301CB70C2F338
:102E1800C7030B71C2F3C7234B71C2F3C34242EA23
:102E280000128A71C0F30610C871F5EEC07AF1EE8F
:102E380010FA1AD4382070BC704742F08002CA7168
:102E48001DE744F08004D4713EE744F08004D47157
:102E58005FE744F08004DC7180E744F08004CC71C3
:102E6800A0E744F08004CC71C0E740F08000C8714E
:102E7800E0E770B4051DD5ED017A17EE903AC3F37B
:102E8800C7520AB102F5607200240C704C708C7045
:102E98005C01CC70C3F3C7040C71C3F3C7244C7135
:102EA800C3F3C34343EA02138B71C2F30612CA7118
:102EB800F5EEC07AF1EE10FA00F1DE8001F10802B9
:102EC800D5ED027A17EE903AC3F3C7540CB104F566
:102ED800607400260E72567096705E01D670C3F349
:102EE800C7061671C3F3C7265671C3F3C34343EA33
:102EF80004139371C4F30614D471F5EEC07AF1EE9D
:102F080010FA00F1BD8001F11002D5ED037A17EE39
:102F1800903AC3F3C7540CB104F5607400250D74DE
:102F2800557095705D01D570C3F3C7051571C3F36E
:102F3800C7255571C3F3C34343EA04139371C4F31C
:102F48000614D471F5EEC07AF1EE10FA00F19C8007
:102F5800143001F11803D0ED017A17EE902AC2F36C
:102F6800C7540CB104F5607400250D765D709D7032
:102F78005101D970C2F3C7011971C2F3C721597140
:102F8800C2F3C34242EA04129A71C4F30614DC7114
:102F9800F5EEC07AF1EE10FA7AD403F10801D0ED1B
:102FA800027A17EE902AC2F3C7540CB104F5607484
:102FB80000251D724D708D705501CD70C2F3C70587
:102FC8000D71C2F3C7254D71C2F3C34242EA041220
:102FD8008A71C4F30614CC71F5EEC07AF1EE10FADA
:102FE8005AD403F11001D0ED037A17EE902AC2F3F8
:102FF800C7540CB104F5607400251D744D708D70B4
:103008005501CD70C2F3C7050D71C2F3C7254D71C7
:10301800C2F3C34242EA04128A71C4F30614CC71A3
:10302800F5EEC07AF1EE10FA3AD403F11801D0EDBA
:10303800047A17EE902AC2F3C75008B100F5607001
:1030480000241C764C708C705301CB70C2F3C703FC
:103058000B71C2F3C7234B71C2F3C34242EA001299
:103068008A71C0F30610C871F5EEC07AF1EE10FA55
:103078001AD4382070BC704742F08002CA711DE72C
:1030880044F08004D4713EE744F08004D4715FE7D3
:1030980044F08004DC7180E744F08004CC71A0E740
:1030A80044F08004CC71C0E740F08000C871E0E7CC
:1030B80070B4051DD5ED017A17EE903AC3F3C752E7
:1030C8000AB102F5607200240C704C708C705C01BF
:1030D800CC70C3F3C7040C71C3F3C7244C71C3F39A
:1030E800C34343EA02138B71C2F30612CA71F5EEA9
:1030F800C07AF1EE10FA00F1B98001F10802D5EDBD
:10310800027A17EE903AC3F3C7540CB104F5607411
:1031180000260E72567096705E01D670C3F3C7060D
:103128001671C3F3C7265671C3F3C34343EA0413A6
:103138009371C4F30614D471F5EEC07AF1EE10FA67
:1031480000F1988001F11002D5ED037A17EE903A5C
:10315800C3F3C7540CB104F5607400250D745570A1
:1031680095705D01D570C3F3C7051571C3F3C72505
:103178005571C3F3C34343EA04139371C4F30614AC
:10318800D471F5EEC07AF1EE10FA77D4143001F16B
:103198001803D0ED017A17EE902AC2F3C7540CB188
:1031A80004F5607400250D765D709D705101D9702D
:1031B800C2F3C7011971C2F3C7215971C2F3C342DF
:1031C80042EA04129A71C4F30614DC71F5EEC07A6F
:1031D800F1EE10FA56D403F10801D0ED027A17EE99
:1031E800902AC2F3C7540CB104F5607400251D720F
:1031F8004D708D705501CD70C2F3C7050D71C2F3C6
:10320800C7254D71C2F3C34242EA04128A71C4F35E
:103218000614CC71F5EEC07AF1EE10FA36D403F14B
:103228001001D0ED037A17EE902AC2F3C75008B107
:1032380000F5607000241C744C708C705301CB70C6
:10324800C2F3C7030B71C2F3C7234B71C2F3C34266
:1032580042EA00128A71C0F30610C871F5EEC07A0E
:10326800F1EE10FA16D4302070BC704742F080029C
:10327800CA7142E744F08004D47163E744F08004E3
:10328800D47183E744F08004DC71A4E744F080043F
:10329800CC71C4E740F08000C871E4E7F0B4074699
:1032A800051D2C1DD4ED017A17EE903AC3F3C752D1
:1032B8000AB102F5607200200870487088705801E1
:1032C800C870C3F3C7000871C3F3C7204871C3F3BC
:1032D800C34343EA02138B71C2F30612CA71F5EEB7
:1032E800C07AF1EE10FA00F1B98001F10802D4EDCC
:1032F800027A17EE903AC3F3C75008B100F5607030
:1033080000260E72567096705E01D670C3F3C7061B
:103318001671C3F3C7265671C3F3C34343EA0013B8
:103328009371C0F30610D071F5EEC07AF1EE10FA81
:1033380000F1988001F11002D4ED037A17EE903A6B
:10334800C3F3C75008B100F5607000240C745470C2
:1033580094705C01D470C3F3C7041471C3F3C72419
:103368005471C3F3C34343EA00139371C0F30610C7
:10337800D071F5EEC07AF1EE10FA77D4143501F178
:103388001803D5ED017A17EE902AC2F3C75008B199
:1033980000F5607000240C765C709C705401DC7041
:1033A800C2F3C7041C71C2F3C7245C71C2F3C342E1
:1033B80042EA00129A71C0F30610D871F5EEC07A8D
:1033C800F1EE10FA56D403F10800D5ED027A17EEA3
:1033D800902AC2F3C7540CB104F5607400261E721B
:1033E800467086705601C670C2F3C7060671C2F3EE
:1033F800C7264671C2F3C34242EA04128271C4F37B
:103408000614C471F5EEC07AF1EE10FA36D403F161
:103418001000D5ED037A17EE902AC2F3C7540CB109
:1034280004F5607400251D74457085705301C370E0
:10343800C2F3C7030371C2F3C7234371C2F3C34284
:1034480042EA04128271C4F30614C471F5EEC07A1C
:10345800F1EE10FA16D40025302032E042F0800256
:10346800CA7142E740F08000D07163E740F0800005
:10347800D07183E740F08000D871A4E744F080045D
:10348800C471C4E744F08004C471E4E700261670F0
:10349800567096705E01D670C3F3C7061671C3F3F3
:1034A800C7265671C3F3C34343EA04139371C4F3A5
:1034B8000614D471F5EEC07AF1EE10FA13D4083080
:1034C8000135232D13D80A1805F10A0307EB8303E6
:1034D800D3ED007A17EE903AC3F3C754002CD5D039
:1034E80004F56074D2E744F08004D471E7E7F0BCD7
:1034F8007047F0B40746041D251DD5ED017A17EE77
:10350800903AC3F3C7520AB102F5607200200870FE
:10351800487088705801C870C3F3C7000871C3F3B6
:10352800C7204871C3F3C34343EA02138B71C2F344
:103538000612CA71F5EEC07AF1EE10FA00F1DE80DB
:1035480001F10802D5ED027A17EE903AC3F3C7509D
:1035580008B100F5607000260E72567096705E0114
:10356800D670C3F3C7061671C3F3C7265671C3F3E3
:10357800C34343EA00139371C0F30610D071F5EE0C
:10358800C07AF1EE10FA00F1BD8001F11002D5ED1C
:10359800037A17EE903AC3F3C75008B100F560708C
:1035A80000250D74557095705D01D570C3F3C7057E
:1035B8001571C3F3C7255571C3F3C34343EA001319
:1035C8009371C0F30610D071F5EEC07AF1EE10FADF
:1035D80000F19C80143401F11803D4ED017A17EE40
:1035E800902AC2F3C75008B100F5607000250D7627
:1035F8005D709D705501DD70C2F3C7051D71C2F382
:10360800C7255D71C2F3C34242EA00129A71C0F342
:103618000610D871F5EEC07AF1EE10FA7AD403F1FB
:103628000800D4ED027A17EE902AC2F3C7550DB1FF
:1036380005F5607500261E72467086705601C670C4
:10364800C2F3C7060671C2F3C7264671C2F3C34266
:1036580042EA05128271C5F30615C571F5EEC07A06
:10366800F1EE10FA5AD403F11000D4ED037A17EEF4
:10367800902AC2F3C7550DB105F5607500261E7472
:10368800467086705601C670C2F3C7060671C2F34B
:10369800C7264671C2F3C34242EA05128271C5F3D6
:1036A8000615C571F5EEC07AF1EE10FA3AD403F1B9
:1036B8001800D4ED047A17EE902AC2F3C7540CB15F
:1036C80004F5607400251D76457085705301C3703C
:1036D800C2F3C7030371C2F3C7234371C2F3C342E2
:1036E80042EA04128271C4F30614C471F5EEC07A7A
:1036F800F1EE10FA1AD40025382036E042F08002A4
:10370800CA711DE740F08000D0713EE740F08000AC
:10371800D0715FE740F08000D87180E745F0800500
:10372800C571A0E745F08005C571C0E744F0800485
:10373800C471E0E700261670567096705E01D67068
:10374800C3F3C7061671C3F3C7265671C3F3C34341
:1037580043EA04139371C4F30614D471F5EEC07AE6
:10376800F1EE10FA13D408300135232D13D80A18B6
:1037780005F10A0307EB8303D3ED017A17EE903ABC
:10378800C3F3C754002CD5D004F56074D2E744F0D5
:103798008004D471E7E7F0BC704730B4D0ED017A0B
:1037A80017EE903AC3F3C7520AB102F560720024CB
:1037B8000C704C708C705C01CC70C3F3C7040C7136
:1037C800C3F3C7244C71C3F3C34343EA02138B7199
:1037D800C2F30612CA71F5EEC07AF1EE10FA4AD4B5
:1037E80001F10802D0ED027A17EE903AC3F3C754FC
:1037F8000CB104F5607400250D72557095705D016B
:10380800D570C3F3C7051571C3F3C7255571C3F345
:10381800C34343EA04139371C4F30614D471F5EE59
:10382800C07AF1EE10FA2AD401F11002D0ED037A31
:1038380017EE903AC3F3C75008B100F56070002442
:103848000C74547094705901D170C3F3C70111718D
:10385800C3F3C7215171C3F3C34343EA0013937100
:10386800C0F30610D071F5EEC07AF1EE10FA0AD462
:10387800182030BC704742F08002CA71B0E744F0AB
:103888008004D471D0E740F08000D071F0E730B404
:10389800D0ED017A17EE903AC3F3C7520AB102F598
:1038A800607200240C704C708C705C01CC70C3F397
:1038B800C7040C71C3F3C7244C71C3F3C34343EA71
:1038C80002138B71C2F30612CA71F5EEC07AF1EEDB
:1038D80010FA4AD401F10802D0ED027A17EE903AB4
:1038E800C3F3C7540CB104F5607400250D7255700C
:1038F80095705D01D570C3F3C7051571C3F3C7256E
:103908005571C3F3C34343EA04139371C4F3061414
:10391800D471F5EEC07AF1EE10FA2AD401F1100252
:10392800D0ED037A17EE903AC3F3C75008B100F50B
:10393800607000240C74547094705901D170C3F3F2
:10394800C7011171C3F3C7215171C3F3C34343EADC
:1039580000139371C0F30610D071F5EEC07AF1EE42
:1039680010FA0AD4182030BC704742F08002CA719D
:10397800B0E744F08004D471D0E740F08000D07103
:10398800F0E7F8B500F1100400F11402CB785B09F8
:1039980083610D7943EAC50383614D7943EAC52301
:1039A80083618D79ED0405F4F0052B4383618E79ED
:1039B800CD792D0105F4FE6555EA161504D0A5F557
:1039C800607543EAC5538361CB791B0603F0004356
:1039D80085692B43836101F10806F3785B099360DD
:1039E800357943EAC5039360757943EAC523936043
:1039F800B579ED0405F4F0052B439360B779F579B3
:103A08002D0105F4FE6555EA171504D0A5F5607576
:103A180043EAC5539360F3791B0603F000439568A6
:103A28002B43936001F11006F3785B09D360357975
:103A380043EAC503D360757943EAC523D360B579F2
:103A4800ED0405F4F0052B43D360B779F5792D0122
:103A580005F4FE6555EA171504D0A5F5607543EA27
:103A6800C553D360F3791B0603F00043D5682B4395
:103A7800D36004F114021831CB785B09A3610D7986
:103A880043EAC503A3614D7943EAC523A3618D7950
:103A9800ED0405F4F0052B43A3618E79CD792D0152
:103AA80005F4FE6555EA161504D0A5F5607543EAD8
:103AB800C553A361CB791B0603F00043A5692B43CB
:103AC800A36101F10806F3785B099360357943EA4D
:103AD800C5039360757943EAC5239360B579ED040E
:103AE80005F4F0052B439360B779F5792D0105F4BA
:103AF800FE6555EA171504D0A5F5607543EAC55368
:103B08009360F3791B0603F0004395682B43936099
:103B18001031CB785B09D3600D7943EAC503D360D4
:103B28004D7943EAC523D3608D79ED0405F4F0059A
:103B38002B43D3608E79CD792D0105F4FE6555EAC6
:103B4800161504D0A5F5607543EAC553D360CB7943
:103B58001B0603F00043D1680B43D360436B204638
:103B68009847F8BD70B4031DCA7852095A600C7999
:103B780042EAC4025A604C7942EAC4225A608C79FB
:103B8800E40404F4F00422435A608D79CC792401CA
:103B980004F4FE6454EA151404D0A4F5607442EAEF
:103BA800C4525A60CA79120602F000425C68224385
:103BB8005A6001F10805EA7852099A602C7942EABC
:103BC800C4029A606C7942EAC4229A60AC79E4042F
:103BD80004F4F00422439A60AE79EC79240104F4E9
:103BE800FE6454EA161404D0A4F5607442EAC45280
:103BF8009A60EA79120602F000429C6822439A60B1
:103C080001F11005EA785209DA602C7942EAC40217
:103C1800DA606C7942EAC422DA60AC79E40404F42C
:103C2800F0042243DA60AE79EC79240104F4FE64EE
:103C380054EA161404D0A4F5607442EAC452DA6057
:103C4800EA79120602F00042DC682243DA6000F1E9
:103C580014031831CA78520982610C7942EAC40205
:103C680082614C7942EAC42282618C79E40404F4CA
:103C7800F004224382618D79CC79240104F4FE6436
:103C880054EA151404D0A4F5607442EAC45282615F
:103C9800CA79120602F0004284692243826101F166
:103CA8000804E27852099A60207942EAC0029A60D0
:103CB800607942EAC0229A60A079C00400F4F0005A
:103CC80002439A60A579E079000100F4FE6050EAA9
:103CD800151004D0A0F5607042EAC0529A60E279EB
:103CE800120602F00042986802439A6001F110043B
:103CF800E2785209DA60207942EAC002DA60607933
:103D080042EAC022DA60A079C00400F4F00002435D
:103D1800DA60A579E079000100F4FE6050EA151038
:103D280004D0A0F5607042EAC052DA60E279120667
:103D380002F00042D8680243DA601831CA785209A2
:103D48001A61087942EAC0021A61487942EAC02237
:103D58001A618879C00400F4F00002431A618C7972
:103D6800C879000100F4FE6050EA141004D0A0F5F0
:103D7800607042EAC0521A61CA79120602F0004223
:103D880019690A431A61382070BC704770B4031D62
:103D9800CA7852095A600C7942EAC4025A604C79CE
:103DA80042EAC4225A608C79E40404F4F004224301
:103DB8005A608D79CC79240104F4FE6454EA151410
:103DC80004D0A4F5607442EAC4525A60CA79120653
:103DD80002F000425C6822435A6001F10805EA7863
:103DE80052099A602C7942EAC4029A606C7942EAD4
:103DF800C4229A60AC79E40404F4F00422439A6083
:103E0800AE79EC79240104F4FE6454EA161404D063
:103E1800A4F5607442EAC4529A60EA79120602F084
:103E280000429C6822439A6001F11005EA78520921
:103E3800DA602C7942EAC402DA606C7942EAC42278
:103E4800DA60AC79E40404F4F0042243DA60AE7971
:103E5800EC79240104F4FE6454EA161404D0A4F5A1
:103E6800607442EAC452DA60EA79120602F000424B
:103E7800DC682243DA6000F114021831CB785B0960
:103E880083610C7943EAC40383614C7943EAC42310
:103E980083618C79E40404F4F004234383618D790D
:103EA800CC79240104F4FE6454EA151404D0A4F572
:103EB800607443EAC4538361CB791B0603F0004363
:103EC80084692343836101F10804E3785B09936003
:103ED800207943EAC0039360607943EAC023936082
:103EE800A079C00400F4F00003439360A579E07959
:103EF800000100F4FE6050EA151004D0A0F56070CF
:103F080043EAC0539360E3791B0603F000439068CB
:103F1800034393601031CB785B09D360087943EA97
:103F2800C003D360487943EAC023D3608879C004CA
:103F380000F4F0000343D3608C79C879000100F4E1
:103F4800FE6050EA141004D0A0F5607043EAC05334
:103F5800D360CB791B0603F00043D1680B43D360D1
:103F6800302070BC704770B4031DCA7852095A607B
:103F78000C7942EAC4025A604C7942EAC4225A6077
:103F88008C79E40404F4F00422435A608D79CC79E6
:103F9800240104F4FE6454EA151404D0A4F56074F2
:103FA80042EAC4525A60CA79120602F000425C68BA
:103FB80022435A6001F10805EA7852099A602C797F
:103FC80042EAC4029A606C7942EAC4229A60AC79E7
:103FD800E40404F4F00422439A60AE79EC792401F5
:103FE80004F4FE6454EA161404D0A4F5607442EA9A
:103FF800C4529A60EA79120602F000429C68224391
:104008009A6001F11005EA785209DA602C7942EADF
:10401800C402DA606C7942EAC422DA60AC79E4045A
:1040280004F4F0042243DA60AE79EC79240104F454
:10403800FE6454EA161404D0A4F5607442EAC4522B
:10404800DA60EA79120602F00042DC682243DA609C
:1040580000F114031831CA78520982610C7942EAD6
:10406800C40282614C7942EAC42282618C79E404F8
:1040780004F4F004224382618D79CC79240104F49C
:10408800FE6454EA151404D0A4F5607442EAC452DC
:104098008261CA79120602F0004284692243826171
:1040A80001F10804E27852099A60207942EAC002D4
:1040B8009A60607942EAC0229A60A079C00400F44C
:1040C800F00002439A60A579E079000100F4FE60EF
:1040D80050EA151004D0A0F5607042EAC0529A6008
:1040E800E279120602F00042986802439A6001F1F0
:1040F8001004E2785209DA60207942EAC002DA60F4
:10410800607942EAC022DA60A079C00400F4F000C5
:104118000243DA60A579E079000100F4FE6050EA14
:10412800151004D0A0F5607042EAC052DA60E27956
:10413800120602F00042D8680243DA601831CA78E1
:1041480052091A61087942EAC0021A61487942EABA
:10415800C0221A618879C00400F4F00002431A6191
:104168008C79C879000100F4FE6050EA141004D07C
:10417800A0F5607042EAC0521A61CA79120602F0CC
:10418800004219690A431A61382070BC704730B47C
:10419800D0ED017A17EE903AC3F3C7520AB102F58F
:1041A800607200240C704C708C705C01CC70C3F38E
:1041B800C7040C71C3F3C7244C71C3F3C34343EA68
:1041C80002138B71C2F30612CA71F5EEC07AF1EED2
:1041D80010FA6ED401F10802D0ED027A17EE903A87
:1041E800C3F3C7540CB104F5607400250D72557003
:1041F80095705D01D570C3F3C7051571C3F3C72565
:104208005571C3F3C34343EA04139371C4F306140B
:10421800D471F5EEC07AF1EE10FA4ED401F1100225
:10422800D0ED037A17EE903AC3F3C7540CB104F5F6
:10423800607400250D74557095705D01D570C3F3D9
:10424800C7051571C3F3C7255571C3F3C34343EAC3
:1042580004139371C4F30614D471F5EEC07AF1EE29
:1042680010FA2ED401F11802D0ED047A17EE903A24
:10427800C3F3C75008B100F5607000240C76547081
:1042880094705901D170C3F3C7011171C3F3C721E9
:104298005171C3F3C34343EA00139371C0F306108B
:1042A800D071F5EEC07AF1EE10FA0ED4202030BCB1
:1042B800704742F08002CA718CE744F08004D471E0
:1042C800ACE744F08004D471CCE740F08000D071B2
:1042D800ECE7F0B50746041D231DCA7852095A6059
:1042E800087942EAC0025A60487942EAC0225A6014
:1042F8008879C00400F4F00002435A608D79C879C7
:10430800000100F4FE6050EA151004D0A0F56070BA
:1043180042EAC0525A60CA79120602F0004258684E
:1043280002435A6001F10805EA7852099A6028792F
:1043380042EAC0029A60687942EAC0229A60A87983
:10434800C00400F4F00002439A60AE79E8790001F5
:1043580000F4FE6050EA161004D0A0F5607042EA3E
:10436800C0529A60EA79120602F000429868024345
:104378009A6001F11005EA785209DA60287942EA70
:10438800C002DA60687942EAC022DA60A879C0041B
:1043980000F4F0000243DA60AE79E879000100F435
:1043A800FE6050EA161004D0A0F5607042EAC052D0
:1043B800DA60EA79120602F00042D8680243DA604D
:1043C80004F1140301F11802D0784009A0611579AD
:1043D80040EAC500A061557940EAC520A0619579F9
:1043E800ED0405F4F0052843A0619679D5792D01EF
:1043F80005F4FE6555EA161504D0A5F5607540EA82
:10440800C550A061D079000600F00040A569284396
:10441800A06102F10805E878400998602C7940EA23
:10442800C40098606C7940EAC4209860AC79E404D0
:1044380004F4F00420439860AE79EC79240104F484
:10444800FE6454EA161404D0A4F5607440EAC4501B
:104458009860E879000600F000409C682043986066
:1044680002F11005E8784009D8602C7940EAC400C8
:10447800D8606C7940EAC420D860AC79E40404F4CC
:10448800F0042043D860AE79EC79240104F4FE648A
:1044980054EA161404D0A4F5607440EAC450D860F5
:1044A800E879000600F00040DC682043D860183244
:1044B800D07840091861147940EAC4001861547929
:1044C80040EAC42018619479E40404F4F004204319
:1044D80018619579D479240104F4FE6454EA15141A
:1044E80004D0A4F5607440EAC4501861D279120669
:1044F80002F00042186902431A610026382008E0D9
:10450800EB791B0603F000436268134363600830CD
:104518000136232E24D80D1806F10A0407EB84046B
:10452800EB785B0963602A7943EAC20363606A79BE
:1045380043EAC2236360AA79D20402F4F002134367
:10454800636095F806E0EA79120102F4FE6252EA25
:104558001E12D5D0A2F5607243EAC2536360CFE75A
:10456800F0BDF0B5051D2B1DCA7852095A600C79AB
:1045780042EAC4025A604C7942EAC4225A608C79F1
:10458800E40404F4F00422435A608E79CC792401BF
:1045980004F4FE6454EA161404D0A4F5607442EAE4
:1045A800C4525A60CA79120602F000425C6822437B
:1045B8005A6001F10806F27852099A60347942EAA1
:1045C800C4029A60747942EAC4229A60B479E40415
:1045D80004F4F00422439A60B779F479240104F4CE
:1045E800FE6454EA171404D0A4F5607442EAC45275
:1045F8009A60F279120602F000429C6822439A609F
:1046080001F11006F2785209DA60347942EAC402FC
:10461800DA60747942EAC422DA60B479E40404F412
:10462800F0042243DA60B779F479240104F4FE64D3
:1046380054EA171404D0A4F5607442EAC452DA604C
:10464800F279120602F00042DC682243DA6005F1D2
:10465800140401F11803DA785209AA611E7942EAB2
:10466800C602AA615E7942EAC622AA619E79F60468
:1046780006F4F0063243AA619F79DE79360106F422
:10468800FE6656EA171604D0A6F5607642EAC652C8
:10469800AA61DA79120602F00042AE693243AA61D1
:1046A80003F10806F2785209A260357942EAC50298
:1046B800A260757942EAC522A260B579ED0405F4D5
:1046C800F0052A43A260B779F5792D0105F4FE6556
:1046D80055EA171504D0A5F5607542EAC552A260DF
:1046E800F279120602F00042A5682A43A26010334C
:1046F800DA785209E2601D7942EAC502E2605D7922
:1047080042EAC522E2609D79ED0405F4F0052A43EA
:10471800E2609E79DD792D0105F4FE6555EA1615EE
:1047280004D0A5F5607542EAC552E260DB791B0644
:1047380003F00043E2681343E360002630270AE0F1
:10474800E3791B0603F0004350F82520134340F893
:10475800253008370136232E27D8CC1906F10A054B
:10476800E3785B0940F82530227943EAC20340F830
:104778002530627943EAC22340F82530A279D20471
:1047880002F4F002134340F8253094F806E0E27989
:10479800120102F4FE6252EA1E12D1D0A2F5607232
:1047A80043EAC25340F82530CAE73846F0BDF8B5A9
:1047B80006460C46071D3B790B707B794B70BB791D
:1047C8008B70FB79CB703B7A0B717B7A4B71BB7A20
:1047D8008B71FB7ACB713B7B0B727B7B4B72BB7B08
:1047E8008B72FB7BCB723869FBF700FD0546002313
:1047F800032B07D803F10C01DA0025FA02F2625400
:104808000133F5E72A46396904F110000CF030F855
:104818001035B069FBF7EAFC07460023032B06D8DE
:104828005919DA0027FA02F262540133F6E704351F
:104838003A46B16960190CF01BF83D4406F11C00BA
:1048480061192036D6ED017A17EE903AC3F3C752B4
:104858000AB102F56072002767554F708F705C01CE
:10486800CC70C3F3C7040C71C3F3C7244C71C3F3F2
:10487800C34343EA02138B71C2F30612CA71F5EE01
:10488800C07AF1EE10FA00F1DE8001F10802D6EDEF
:10489800027A17EE903AC3F3C7540CB104F560746A
:1048A80000270F72577097705F01D770C3F3C7075F
:1048B8001771C3F3C7275771C3F3C34343EA0413FC
:1048C8009371C4F30614D471F5EEC07AF1EE10FAC0
:1048D80000F1BD8001F11002D6ED037A17EE903A8F
:1048E800C3F3C7540CB104F5607400260E745670F7
:1048F80096705E01D670C3F3C7061671C3F3C72658
:104908005671C3F3C34343EA04139371C4F3061403
:10491800D471F5EEC07AF1EE10FA00F19C801430F3
:1049280001F11803D0ED017A17EE902AC2F3C754AB
:104938000CB104F5607400260E765E709E7051010D
:10494800D970C2F3C7011971C2F3C7215971C2F3F3
:10495800C34242EA04129A71C4F30614DC71F5EEFC
:10496800C07AF1EE10FA7AD403F10801D0ED027A98
:1049780017EE902AC2F3C7540CB104F560740026F0
:104988001E724E708E705601CE70C2F3C7060E713D
:10499800C2F3C7264E71C2F3C34242EA04128A71B7
:1049A800C4F30614CC71F5EEC07AF1EE10FA5AD4BD
:1049B80003F11001D0ED037A17EE902AC2F3C75421
:1049C8000CB104F5607400261E744E708E7056018A
:1049D800CE70C2F3C7060E71C2F3C7264E71C2F37A
:1049E800C34242EA04128A71C4F30614CC71F5EE8C
:1049F800C07AF1EE10FA3AD403F11801D0ED047A36
:104A080017EE902AC2F3C75008B100F56070002471
:104A18001C764C708C705301CB70C2F3C7030B71BA
:104A2800C2F3C7234B71C2F3C34242EA00128A7130
:104A3800C0F30610C871F5EEC07AF1EE10FA1AD478
:104A480005F13800F8BD42F08002CA711DE744F054
:104A58008004D4713EE744F08004D4715FE744F0E9
:104A68008004DC7180E744F08004CC71A0E744F056
:104A78008004CC71C0E740F08000C871E0E730B432
:104A8800CB785B0943600A7943EAC20343604A79F9
:104A980043EAC22343608A79D20402F4F002134342
:104AA80043608C79CA79120102F4FE6252EA141248
:104AB80004D0A2F5607243EAC2534360CB791B0667
:104AC80003F0004342681343436001F10804E378AC
:104AD8005B098360227943EAC2038360627943EA0F
:104AE800C2238360A279D20402F4F00213438360E4
:104AF800A579E279120102F4FE6252EA151204D095
:104B0800A2F5607243EAC2538360E3791B0603F09F
:104B180000438268134383601031CB785B09C3601C
:104B28000A7943EAC203C3604A7943EAC223C360ED
:104B38008A79D20402F4F0021343C3608C79CA79EB
:104B4800120102F4FE6252EA141204D0A2F5607255
:104B580043EAC253C360CB791B0603F00043C26823
:104B68001343C360182030BC704730B4CB785B095E
:104B780043600A7943EAC20343604A7943EAC2239D
:104B880043608A79D20402F4F002134343608C79BB
:104B9800CA79120102F4FE6252EA141204D0A2F594
:104BA800607243EAC2534360CB791B0603F00043AB
:104BB80042681343436001F10804E3785B098360AA
:104BC800227943EAC2038360627943EAC22383609D
:104BD800A279D20402F4F00213438360A579E27942
:104BE800120102F4FE6252EA151204D0A2F56072B4
:104BF80043EAC2538360E3791B0603F000438268EB
:104C0800134383601031CB785B09C3600A7943EAA8
:104C1800C203C3604A7943EAC223C3608A79D204D3
:104C280002F4F0021343C3608C79CA79120102F4CA
:104C3800FE6252EA141204D0A2F5607243EAC2532B
:104C4800C360CB791B0603F00043C2681343C360FB
:104C5800182030BC7047F8B505460C46061D337958
:104C68000B7073794B70B3798B70F379CB70337A9F
:104C78000B71737A4B71B37A8B71F37ACB71337B87
:104C88000B72737B4B72B37B8B72F37BCB72306985
:104C9800FBF7ACFA07460023032B07D803F10C01F6
:104CA800DA0027FA02F262540133F5E73A4631692D
:104CB80004F110000BF0DCFD07F110032A7EE2542A
:104CC80007F111036A7EE25407F11203AA7EE25447
:104CD80007F11303EA7EE25407F114000022AB69DE
:104CE8009A4211D22B6A53F822302354411CC3F341
:104CF80007266654811CC3F307466654C11C1B0E65
:104D0800635404300132EAE795F824302354431CF5
:104D180095F82520E254831C95F82620E254C31CFC
:104D280095F82720E254043000226B6A9A4211D287
:104D3800EB6A53F822302354411CC3F30726665408
:104D4800811CC3F307466654C11C1B0E6354043010
:104D58000132EAE7F8BD2DE9F04105460C46071D8A
:104D68003B790B707B794B70BB798B70FB79CB707F
:104D78003B7A0B717B7A4B71BB7A8B71FB7ACB7167
:104D88003B7B0B727B7B4B72BB7B8B72FB7BCB724F
:104D98003869FBF72BFA06460023032B07D803F1E3
:104DA8000C01DA0026FA02F262540133F5E73246C2
:104DB800396904F110000BF05BFD1036A869FBF7A8
:104DC80015FA07460023032B06D89919DA0027FAA3
:104DD80002F262540133F6E704363A46A969A0198B
:104DE8000BF046FD07EB060C05F11C0E04EB0C0757
:104DF80005F1200105F12400D0ED017A17EE903A73
:104E0800C3F3C7520AB102F56072002604F80C60B9
:104E18007E70BE705E01FE70C3F3C7063E71C3F3B9
:104E2800C7267E71C3F3C34343EA0213BB71C2F3BF
:104E38000612FA71F5EEC07AF1EE10FA00F1F78079
:104E480007F10802D0ED027A17EE903AC3F3C7567D
:104E58000EB106F560764FF0000887F8088082F8F2
:104E6800018082F802804FEA431882F80380C3F376
:104E7800C70882F80480C3F3C72882F80580C3F303
:104E8800C34343EA06139371C6F30616D671F5EECB
:104E9800C07AF1EE10FA00F1CE8007F11002D0EDE1
:104EA800037A17EE903AC3F3C75008B100F5607063
:104EB80000263E74567096705E01D670C3F3C7061E
:104EC8001671C3F3C7265671C3F3C34343EA0013ED
:104ED8009371C0F30610D071F5EEC07AF1EE10FAB6
:104EE80000F1AD80143107F11803D1ED017A17EE06
:104EF800902AC2F3C75008B100F5607000263E76CC
:104F08005E709E705601DE70C2F3C7061E71C2F352
:104F1800C7265E71C2F3C34242EA00129A71C0F317
:104F28000610D871F5EEC07AF1EE10FA00F18B8018
:104F380003F10800D1ED027A17EE902AC2F3C756A2
:104F48000EB106F560764FF0000883F8088080F807
:104F5800018080F802804FEA421880F80380C2F38B
:104F6800C70880F80480C2F3C72880F80580C2F318
:104F7800C34242EA06128271C6F30616C671F5EEFE
:104F8800C07AF1EE10FA62D403F11000D1ED037A81
:104F980017EE902AC2F3C7560EB106F560764FF0A9
:104FA800000883F8108080F8018080F802804FEABA
:104FB800421880F80380C2F3C70880F80480C2F35F
:104FC800C72880F80580C2F3C34242EA06128271FC
:104FD800C6F30616C671F5EEC07AF1EE10FA3AD4A9
:104FE80003F11800D1ED047A17EE902AC2F3C751E5
:104FF80009B101F5607100261E764670867053016E
:10500800C370C2F3C7030371C2F3C7234371C2F36A
:10501800C34242EA01128271C1F30611C171F5EE71
:10502800C07AF1EE10FA1AD4002038263EE042F099
:105038008002FA7104E746F08006D6712DE740F049
:105048008000D0714EE740F08000D87170E746F0DC
:105058008006C67198E746F08006C671C0E741F041
:105068008001C171E0E74FF0000882F8008082F803
:10507800018082F802804FEA431882F80380C3F364
:10508800C70882F80480C3F3C72882F80580C3F3F1
:10509800C34343EA01139371C1F30611D171F5EECD
:1050A800C07AF1EE10FA13D408360130232813D849
:1050B800BA1900F10A030EEB8303D3ED017A17EE58
:1050C800903AC3F3C7510029CDD001F56071CAE702
:1050D80041F08001D171E7E70CEB060005F1D80734
:1050E800261805F1DC02E035D5ED017A17EE903A85
:1050F800C3F3C75109B101F560714FF0000E04F810
:1051080000E086F801E086F802E05C01F470C3F381
:10511800C7043471C3F3C7247471C3F3C34343EAA8
:105128000113B371C1F30611F171F5EEC07AF1EE16
:1051380010FA00F1CC8006F10801D5ED027A17EEDD
:10514800903AC3F3C7540CB104F560744FF0000EE5
:1051580086F808E081F801E081F802E04FEA431E92
:1051680081F803E0C3F3C70E81F804E0C3F3C72E48
:1051780081F805E0C3F3C34343EA04138B71C4F316
:105188000614CC71F5EEC07AF1EE10FA00F1A380A6
:1051980006F11001D5ED037A17EE903AC3F3C75420
:1051A8000CB104F56074002535744D708D705D0187
:1051B800CD70C3F3C7050D71C3F3C7254D71C3F394
:1051C800C34343EA04138B71C4F30614CC71F5EEA0
:1051D800C07AF1EE10FA00F1828002F1140506F1AE
:1051E8001803D5ED017A17EE902AC2F3C75109B119
:1051F80001F56071002434765C709C705401DC7099
:10520800C2F3C7041C71C2F3C7245C71C2F3C34262
:1052180042EA01129A71C1F30611D971F5EEC07A0A
:10522800F1EE10FA5FD403F10801D5ED027A17EE1A
:10523800902AC2F3C7540CB104F560744FF0000E05
:1052480083F808E081F801E081F802E04FEA421EA5
:1052580081F803E0C2F3C70E81F804E0C2F3C72E59
:1052680081F805E0C2F3C34242EA04128A71C4F32A
:105278000614CC71F5EEC07AF1EE10FA37D403F1CA
:105288001001D5ED037A17EE902AC2F3C7540CB17A
:1052980004F5607400251D744D708D705301CB703A
:1052A800C2F3C7030B71C2F3C7234B71C2F3C342E6
:1052B80042EA04128A71C4F30614CC71F5EEC07A7E
:1052C800F1EE10FA17D400244FF0300E33E041F01D
:1052D8008001F1712FE744F08004CC7158E744F065
:1052E8008004CC7179E741F08001D9719BE744F0E3
:1052F8008004CC71C3E744F08004CC71E3E7002557
:105308001570557095705D01D570C3F3C70515719B
:10531800C3F3C7255571C3F3C34343EA011393711C
:10532800C1F30611D171F5EEC07AF1EE10FA15D479
:105338000EF1080E0134232C14D806EB0E0204F1EA
:105348000A0307EB8303D3ED007A17EE903AC3F311
:10535800C7510029D3D001F56071D0E741F0800131
:10536800D171E5E77044BDE8F08130B4CB785B09D2
:1053780043600A7943EAC20343604A7943EAC22395
:1053880043608A79D20402F4F002134343608C79B3
:10539800CA79120102F4FE6252EA141204D0A2F58C
:1053A800607243EAC2534360CB791B0603F00043A3
:1053B80042681343436001F10804E3785B098360A2
:1053C800227943EAC2038360627943EAC223836095
:1053D800A279D20402F4F00213438360A579E2793A
:1053E800120102F4FE6252EA151204D0A2F56072AC
:1053F80043EAC2538360E3791B0603F000438268E3
:105408001343836001F11004E3785B09C3602279D8
:1054180043EAC203C360627943EAC223C360A27944
:10542800D20402F4F0021343C360A579E2791201B1
:1054380002F4FE6252EA151204D0A2F5607243EA41
:10544800C253C360E3791B0603F00043C2681343E9
:10545800C3601831CB785B0903610A7943EAC20358
:1054680003614A7943EAC22303618A79D20402F4C8
:10547800F002134303618C79CA79120102F4FE62C7
:1054880052EA141204D0A2F5607243EAC2530361CF
:10549800CB791B0603F00043026913430361202004
:1054A80030BC70472DE9F04107460D4600F1100663
:1054B80000F1140E0B78CEF804304A7843EA022340
:1054C800CEF804308A7843EA0243CEF80430CA782A
:1054D80043EA0263CEF804300B79CEF808304A79F3
:1054E80043EA0223CEF808308A7943EA0243CEF829
:1054F8000830CA7943EA0263CEF808300B7ACEF84E
:105508000C304A7A43EA0223CEF80C308A7A43EA0E
:105518000243CEF80C30CA7A43EA0263CEF80C3064
:1055280000221346032B06D8E918097BD8008140CE
:105538000A430133F6E7102302F110049C4204D910
:10554800591EE85C68540133F6E70F320023AB5468
:1055580005F10F03CEF8103015F80480631CEB5CDE
:1055680048EA0328A31CEB5C48EA0348E31CEB5C0D
:1055780048EA03680434B369984519D8C6F818800E
:105588000022B36993421AD92B5D611C695C43EA16
:105598000123A11C695C43EA0143E11C695C43EAFD
:1055A8000163F3610434316A41F822300132E8E7DB
:1055B8004FEA8801306A0BF023FD3062DEE715F808
:1055C8000480631CEB5C48EA0328A31CEB5C48EAF4
:1055D8000348E31CEB5C48EA03680434736A9845A3
:1055E80019D8C6F824800022736A93421AD92B5D11
:1055F800611C695C43EA0123A11C695C43EA01431D
:10560800E11C695C43EA0163B3620434F16A41F85E
:1056180022300132E8E74FEA8801F06A0BF0F0FC2B
:10562800F062DEE73B6C30469847BDE8F081F8B59C
:1056380005460C46061D33790B7073794B70B379A8
:105648008B70F379CB70337A0B71737A4B71B37AB1
:105658008B71F37ACB71337B0B72737B4B72B37B99
:105668008B72F37BCB723069FAF7C0FD07460023D3
:10567800032B07D803F10C01DA0027FA02F262546F
:105688000133F5E73A46316904F110000BF0F0F800
:1056980007F1100005F118012318D1ED017A17EE72
:1056A800902AC2F3C7560EB106F560760027275434
:1056B8005F709F705701DF70C2F3C7071F71C2F395
:1056C800C7275F71C2F3C34242EA06129A71C6F352
:1056D8000616DE71F5EEC07AF1EE10FA7ED403F10B
:1056E8000806D1ED027A17EE902AC2F3C7570FB118
:1056F80007F560774FF0000E83F808E086F801E0C0
:1057080086F802E04FEA421E86F803E0C2F3C70EAD
:1057180086F804E0C2F3C72E86F805E0C2F3C34258
:1057280042EA0712B271C7F30617F771F5EEC07AAD
:10573800F1EE10FA56D403F11006D1ED037A17EE04
:10574800902AC2F3C7570FB107F560774FF0000EE4
:1057580083F810E086F801E086F802E04FEA421E7E
:1057680086F803E0C2F3C70E86F804E0C2F3C72E3A
:1057780086F805E0C2F3C34242EA0712B271C7F3E2
:105788000617F771F5EEC07AF1EE10FA2ED403F190
:105798001806D1ED047A17EE902AC2F3C75109B161
:1057A80001F5607100271F767770B7705301F370A9
:1057B800C2F3C7033371C2F3C7237371C2F3C34281
:1057C80042EA0112B271C1F30611F171F5EEC07A25
:1057D800F1EE10FA0ED4203000262AE046F08006BA
:1057E800DE717CE747F08007F771A4E747F0800790
:1057F800F771CCE741F08001F171ECE700271770F1
:10580800577097705F01D770C3F3C7071771C3F359
:10581800C7275771C3F3C34343EA01139371C1F315
:105828000611D171F5EEC07AF1EE10FA13D40830F2
:105838000136082E13D8221806F10A0305EB830354
:10584800D3ED017A17EE903AC3F3C7510029D5D0AA
:1058580001F56071D2E741F08001D171E7E705F108
:1058680050072318D7ED017A17EE902AC2F3C751D3
:1058780009B101F5607100261E705E709E705601B8
:10588800DE70C2F3C7061E71C2F3C7265E71C2F38B
:10589800C34242EA01129A71C1F30611D971F5EEB9
:1058A800C07AF1EE10FA52D403F10801D7ED027A6A
:1058B80017EE902AC2F3C7560EB106F560764FF080
:1058C800000E83F808E081F801E081F802E04FEA71
:1058D800421E81F803E0C2F3C70E81F804E0C2F368
:1058E800C72E81F805E0C2F3C34242EA06128A7164
:1058F800C6F30616CE71F5EEC07AF1EE10FA2AD488
:1059080003F11001D7ED037A17EE902AC2F3C756B8
:105918000EB106F5607600271F744F708F70530123
:10592800CB70C2F3C7030B71C2F3C7234B71C2F329
:10593800C34242EA06128A71C6F30616CE71F5EE24
:10594800C07AF1EE10FA0AD41830002626E041F0A9
:105958008001D971A8E746F08006CE71D0E746F0FD
:105968008006CE71F0E700271770577097705F01B7
:10597800D770C3F3C7071771C3F3C7275771C3F3AA
:10598800C34343EA01139371C1F30611D171F5EED4
:10599800C07AF1EE10FA13D408300136082E13D865
:1059A800221806F1180305EB8303D3ED007A17EEEE
:1059B800903AC3F3C7510029D5D001F56071D2E7F9
:1059C80041F08001D171E7E705F184072318D7ED8D
:1059D800017A17EE902AC2F3C75109B101F5607137
:1059E80000261E705E709E705601DE70C2F3C706F8
:1059F8001E71C2F3C7265E71C2F3C34242EA0112A6
:105A08009A71C1F30611D971F5EEC07AF1EE10FA68
:105A180052D403F10801D7ED027A17EE902AC2F3A7
:105A2800C7560EB106F560764FF0000E83F808E011
:105A380081F801E081F802E04FEA421E81F803E0B4
:105A4800C2F3C70E81F804E0C2F3C72E81F805E05F
:105A5800C2F3C34242EA06128A71C6F30616CE7131
:105A6800F5EEC07AF1EE10FA2AD403F11001D7ED61
:105A7800037A17EE902AC2F3C7560EB106F5607680
:105A880000271F744F708F705301CB70C2F3C70388
:105A98000B71C2F3C7234B71C2F3C34242EA061229
:105AA8008A71C6F30616CE71F5EEC07AF1EE10FAD9
:105AB8000AD41830002626E041F08001D971A8E701
:105AC80046F08006CE71D0E746F08006CE71F0E74A
